01REMESSA01COBRANCA       00000000000000000000Laboratório Elite             033SANTANDER      2604190000000000000000                                                                                                                                                                                                                                                                                      000001
1026831974800019516400000258500002585                         00020000000000 40000000000000000000    00003000120000     26051900025575000001040000006N260419000000000000002000000000000000000000000000000000000000000000000268319748000195PREFEITURA MUNICIPAL DE GUATAPARA       RUA DOS JASMINS 296  CENTRO SERTAOZINHO CENTRO      141150003551702-SERTAOZSP                               000      00 000002
1026158655800132916400000258500002585                         00020000000000 40000000000000000000    00003000120000     26051900000030000001040000006N260419000000000000002000000000000000000000000000000000000000000000000261586558001329Cassi                                   Beco Treze de Maio 23 casa Cidade IndustCidade Indus322100003118601-CONTAGEMG                               000      00 000003
0000002000002560500000000000000000000000000000000000000000000000000000000000000000000000000000000000000000000000000000000000000000000000000000000000000000000000000000000000000000000000000000000000000000000000000000000000000000000000000000000000000000000000000000000000000000000000000000000000000000000000000000000000000000000000000000000000000000000000000000000000000000000000000000000000000000000004